:100000000C9472000C948B000C948B000C948B005D
:100010000C948B000C948B000C948B000C948B0034
:100020000C948B000C948B000C948B000C948B0024
:100030000C948B000C948B000C948B000C948B0014
:100040000C948B000C948B000C948B000C948B0004
:100050000C948B000C948B000C948B000C948B00F4
:100060000C948B000C948B000C948B000C948B00E4
:100070000C948B000C948B000C948B000C948B00D4
:100080000C948B000C948B000C948B000C948B00C4
:100090000C948B000C948B000C948B000C948B00B4
:1000A0000C948B000C948B000C948B000C948B00A4
:1000B0000C948B000C948B000C948B000C948B0094
:1000C0000C948B000C948B000C948B000C948B0084
:1000D0000C948B000C948B000C948B000C948B0074
:1000E0000C948B0011241FBECFEFD1E2DEBFCDBF39
:1000F00000E00CBF12E0A0E0B2E0EAEFF3E000E0C5
:100100000BBF02C007900D92AA3AB107D9F70E941F
:10011000C9000C94FB010C9400001092C50082E30E
:100120008093C40086E08093C20088E98093C10078
:1001300008959091C00095FFFCCF8093C60008956C
:100140008091C00087FFFCCF8091C6000895FC011C
:100150009091C00097FFFCCF9091C6009193992396
:1001600029F09A3011F09D3099F711929E2F981B2B
:10017000892F0895FC012081222351F0319690911E
:10018000C00095FFFCCF2093C60021912111F7CF2D
:100190000895CF93DF93CDB7DEB7DA950FB6F89415
:1001A000DEBF0FBECDBF9DEF9093800089E08093AE
:1001B000810090939000809391009093A000809391
:1001C000A1008BE9809388009AE090938A00809345
:1001D0008D0080938C0084E68093980098EC909337
:1001E0009A0087E380939C0026E92093A8009093CF
:1001F000AA008093AC0088E784B98DB9809301018F
:100200001092C50082E38093C40086E08093C20010
:1002100088E98093C100E1E0F2E082E59091C000BE
:1002200095FFFCCF8093C60081918111F7CF1FEF1E
:10023000FE0131968091C00087FFFCCF8091C600FF
:100240008193882329F08A3011F08D3099F710823C
:10025000E4E5F2E092E78091C00085FFFCCF909347
:10026000C60091919111F7CF9981992359F0FE0120
:1002700032968091C00085FFFCCF9093C60091918B
:100280009111F7CFBE016F5F7F4F87E092E00E9430
:10029000EA01892B09F059C0EFE0F2E093E5809183
:1002A000C00085FFFCCF9093C60091919111F7CFCC
:1002B000FE0131968091C00087FFFCCF8091C6007F
:1002C0008193882329F08A3011F08D3099F71082BC
:1002D000CE0101960E94CC017C01EEE5F2E029E618
:1002E0009091C00095FFFCCF2093C6002191211171
:1002F000F7CFFE0131969091C00097FFFCCF90910F
:10030000C6009193992329F09A3011F09D3099F706
:100310001082CE0101960E94CC0192E0E916F10410
:1003200061F193E0E916F10471F480939C00E6E238
:10033000F2E096E78091C00085FFFCCF9093C60065
:1003400091919111F7CF1093AA006FE372E0CE0163
:1003500001960E94EA01892B09F06ACFE8E4F2E0F5
:1003600090E78091C00085FFFCCF9093C6009191EB
:100370009111F7CF1093AA005BCF80939A00E0E928
:10038000F2E096E78091C00085FFFCCF9093C60015
:1003900091919111F7CFD9CFFC0188279927E89443
:1003A00021912032E9F3293010F02E30C8F32B329E
:1003B00041F02D3239F4689404C00E94F301820F99
:1003C000911D219120532A30C0F31EF49095819500
:1003D0009F4F0895FB01DC018D9101908019011060
:1003E000D9F3990B08957AE0979F902D879F802DE0
:0A03F000910D11240895F894FFCF39
:1003FA0052454144590A0070696E6F6E0A00536390
:10040A0065676C6920756E2070696E2064612032A0
:10041A002D38200A0076616C6F72652073657474DA
:10042A0061746F207065722070696E2033200070CD
:10043A00696E6F66660A0070696E2037204F4646FD
:10044A00200A0072656365697665640A00696E73DD
:10045A006572697363692076616C6F726520302DED
:10046A00323535207065722064696D6D657261720E
:10047A00652070657220696C2070696E200A0076AA
:10048A00616C6F7265207365747461746F20706536
:0A049A00722070696E20322000000D
:00000001FF
