:100000000C9489000C94AA000C94AA000C94AA00E9
:100010000C94AA000C94AA000C94AA000C94AA00B8
:100020000C94AA000C94AA000C94AA000C94AA00A8
:100030000C94AA000C94AA000C94AA000C94AA0098
:100040000C94AA000C94AA000C94AA000C94AA0088
:100050000C94AA000C94AA000C94AA000C94AA0078
:100060000C94AA000C94AA000C94AA000C94AA0068
:100070000C94AA000C94AA000C94AA000C94AA0058
:100080000C94AA000C94AA000C94AA000C94AA0048
:100090000C94AA000C94AA000C94AA000C94AA0038
:1000A0000C94AA000C94AA000C94AA000C94AA0028
:1000B0000C94AA000C94AA000C94AA000C94AA0018
:1000C0000C94AA000C94AA000C94AA000C94AA0008
:1000D0000C94AA000C94AA000C94AA000C94AA00F8
:1000E0000C94AA0019030103E902D102B9023103F9
:1000F00049030C94B9020C9419030C9449030C9411
:10010000D1020C94E9020C9431030C94EF000C948E
:10011000010311241FBECFEFD1E2DEBFCDBF00E04F
:100120000CBF13E0A0E0B2E0EAEAFCE000E00BBFA5
:1001300002C007900D92AE3DB107D9F723E0AEEDB6
:10014000B3E001C01D92A43EB207E1F70E94420154
:100150000C9453060C9400001092C50082E3809327
:10016000C40086E08093C20088E98093C1000895AE
:100170009091C00095FFFCCF8093C60008958091B8
:10018000C00087FFFCCF8091C6000895FC019091CC
:10019000C00097FFFCCF9091C6009193992329F05E
:1001A0009A3011F09D3099F711929E2F981B892F4C
:1001B0000895FC012081222351F031969091C000D6
:1001C00095FFFCCF2093C60021912111F7CF089510
:1001D00080E480937C0087E880937A0008958A30D9
:1001E00049F09091C00095FFFCCF8093C60080E05D
:1001F00090E008959091C00095FFFCCF9DE0909312
:10020000C600EFCF9093C5008093C40086E0809332
:10021000C20088E98093C10008959091C00095FFC5
:10022000FCCF8093C60008958091C00087FFFCCF6B
:100230008091C60008958091C000881F8827881F7C
:100240000895FC012081222351F031969091C00045
:1002500095FFFCCF2093C60021912111F7CF08957F
:1002600080E092E09093E1038093E0031092C50058
:1002700082E38093C40086E08093C20088E9809383
:10028000C1000895CF93DF93CDB7DEB7DA950FB6EF
:10029000F894DEBF0FBECDBF0E94300180E4809392
:1002A0007C0087E880937A009DEF9093800089E03E
:1002B0008093810090939000809391009093A00090
:1002C0008093A10088E784B98DB9809301011092D1
:1002D000C50082E38093C40086E08093C20088E971
:1002E0008093C100EFE0F2E082E59091C00095FFBD
:1002F000FCCF8093C60081918111F7CFE8E1F2E055
:100300008DE49091C00095FFFCCF8093C600819151
:100310008111F7CF02E412E080917C00887F856034
:1003200080937C0080917A00806480937A00809131
:100330007A0086FDFCCF2091780030917900809181
:100340007C00876080937C0080917A008064809339
:100350007A0080917A0086FDFCCF809178009091A0
:1003600079009F938F933F932F931F930F930E9436
:1003700098030F900F900F900F900F900F90FE0129
:1003800031968091C00087FFFCCF8091C600819399
:10039000882329F08A3011F08D3099F71082EFE927
:1003A000F3E092E78091C00085FFFCCF9093C600F8
:1003B00091919111F7CF9981992359F0FE013296CD
:1003C0008091C00085FFFCCF9093C6009191911160
:1003D000F7CFBE016F5F7F4F8AEB93E00E948703E8
:1003E000892BE9F481E08093880080938A008093D0
:1003F000980080939A0080939C008093A80080933B
:10040000AA008093AC00E9EAF3E094E78091C00091
:1004100085FFFCCF9093C60091919111F7CFBE015B
:100420006F5F7F4F8DEB93E00E948703892B09F06C
:100430005DC0EDE5F2E093E58091C00085FFFCCF63
:100440009093C60091919111F7CFFE013196809162
:10045000C00087FFFCCF8091C6008193882329F0DC
:100460008A3011F08D3099F71082CE0101960E94EA
:100470006903F82E8FEF8F0D883008F05EC0A8EA70
:10048000B2E029E69091C00095FFFCCF2093C60012
:100490002D912111F7CFDE0111969091C00097FFA9
:1004A000FCCF9091C6009D93992329F09A3011F0CA
:1004B0009D3099F71C92CE0101960E946903982FF6
:1004C0004F2D50E0FA013297E730F10508F44BC0A8
:1004D00090938A00EAEDF2E096E78091C00085FFF4
:1004E000FCCF9093C60091919111F7CF61E572E036
:1004F000CE0101960E948703892B09F00DCF8FEF63
:100500008093880080938A008093980080939A005B
:1005100080939C008093A8008093AA008093AC00F5
:10052000E0E9F3E094E78091C00085FFFCCF909371
:10053000C60091919111F7CFEFCEE4E7F2E090E59C
:100540008091C00085FFFCCF9093C60091919111DE
:10055000F7CF61E572E0CE0101960E948703892BF7
:1005600009F0DACECCCF8827EE58FF4F8F4F0C948E
:1005700061039093A800ECE5F3E096E78091C0005A
:1005800085FFFCCF9093C60091919111F7CF61E563
:1005900072E0CE0101960E948703892B09F0BCCE40
:1005A000AECF90939800E2E4F3E096E78091C0002C
:1005B00085FFFCCF9093C60091919111F7CF61E533
:1005C00072E0CE0101960E948703892B09F0A4CE28
:1005D00096CF90938800E8E2F3E096E78091C00020
:1005E00085FFFCCF9093C60091919111F7CF61E503
:1005F00072E0CE0101960E948703892B09F08CCE10
:100600007ECF90939C00EEE0F3E096E78091C000EF
:1006100085FFFCCF9093C60091919111F7CF61E5D2
:1006200072E0CE0101960E948703892B09F074CEF7
:1006300066CF90939A00E4EFF2E096E78091C000D5
:1006400085FFFCCF9093C60091919111F7CF61E5A2
:1006500072E0CE0101960E948703892B09F05CCEDF
:100660004ECF9093AA00E6E7F3E096E78091C000B2
:1006700085FFFCCF9093C60091919111F7CF61E572
:1006800072E0CE0101960E948703892B09F044CEC7
:1006900036CF9093AC00E5ECF3E096E78091C00094
:1006A00085FFFCCF9093C60091919111F7CF61E542
:1006B00072E0CE0101960E948703892B09F02CCEAF
:1006C0001ECFEE0FFF1F881F8BBF0790F691E02D06
:1006D0001994FC0188279927E89421912032E9F3A5
:1006E000293010F02E30C8F32B3241F02D3239F47E
:1006F000689404C00E949003820F911D21912053A1
:100700002A30C0F31EF4909581959F4F0895FB0108
:10071000DC018D91019080190110D9F3990B089596
:100720007AE0979F902D879F802D910D1124089539
:10073000CF93DF93CDB7DEB7AE014A5F5F4FFA01CB
:1007400061917191AF018091E0039091E1030E946A
:10075000AC03DF91CF9108952F923F924F925F9219
:100760006F927F928F929F92AF92BF92CF92DF92C1
:10077000EF92FF920F931F93CF93DF93CDB7DEB726
:100780002C970FB6F894DEBF0FBECDBF7C016B0176
:100790008A01FC0117821682838181FFBDC1CE01CF
:1007A00001964C01F7019381F60193FD859193FF2A
:1007B00081916F01882309F4ABC1853239F493FD2F
:1007C000859193FF81916F01853229F4B70190E003
:1007D0000E94BD05E7CF512C312C20E02032A0F43F
:1007E0008B3269F030F4803259F0833269F4206141
:1007F0002CC08D3239F0803339F4216026C022605C
:10080000246023C0286021C027FD27C030ED380FA9
:100810003A3078F426FF06C0FAE05F9E300D1124CE
:10082000532E13C08AE0389E300D1124332E2062DF
:100830000CC08E3221F426FD6BC1206406C08C36BC
:1008400011F4206802C0883641F4F60193FD8591C9
:1008500093FF81916F018111C1CF982F9F7D955496
:10086000933028F40C5F1F4FFFE3F9830DC08336EC
:1008700031F0833771F0833509F05BC022C0F80195
:10088000808189830E5F1F4F44244394512C54016F
:1008900015C03801F2E06F0E711CF801A080B18024
:1008A00026FF03C0652D70E002C06FEF7FEFC5012A
:1008B0002C870E94B2052C0183012C852F77222ED4
:1008C00017C03801F2E06F0E711CF801A080B180F2
:1008D00026FF03C0652D70E002C06FEF7FEFC501FA
:1008E0002C870E94A7052C012C852068222E8301CD
:1008F00023FC1BC0832D90E048165906B0F4B701C5
:1009000080E290E00E94BD053A94F4CFF50127FC07
:10091000859127FE81915F01B70190E00E94BD059E
:1009200031103A94F1E04F1A51084114510471F713
:10093000E5C0843611F0893639F5F80127FF07C084
:1009400060817181828193810C5F1F4F08C060813B
:100950007181072E000C880B990B0E5F1F4F2F76AD
:10096000722E97FF09C090958095709561957F4F85
:100970008F4F9F4F2068722E2AE030E0A4010E9422
:10098000F505A82EA81844C0853729F42F7EB22E6D
:100990002AE030E025C0F22FF97FBF2E8F36C1F05C
:1009A00018F4883579F0B4C0803719F0883721F011
:1009B000AFC02F2F2061B22EB4FE0DC08B2D8460EE
:1009C000B82E09C024FF0AC09F2F9660B92E06C01A
:1009D00028E030E005C020E130E002C020E132E054
:1009E000F801B7FE07C060817181828193810C5F3D
:1009F0001F4F06C06081718180E090E00E5F1F4F45
:100A0000A4010E94F505A82EA818FB2DFF777F2EC4
:100A100076FE0BC0372D3E7FA51450F474FE0AC03D
:100A200072FC08C0372D3E7E05C0BA2C372D03C09E
:100A3000BA2C01C0B52C34FF0DC0FE01EA0DF11D2A
:100A40008081803311F4397E09C032FF06C0B3942F
:100A5000B39404C0832F867809F0B39433FD13C098
:100A600030FF06C05A2CB31418F4530C5B18B32C87
:100A7000B31468F4B70180E290E03C870E94BD05A2
:100A8000B3943C85F5CFB31410F43B1801C0312C5E
:100A900034FF12C0B70180E390E03C870E94BD059F
:100AA0003C8532FF17C031FD03C088E790E002C0EB
:100AB00088E590E0B7010CC0832F867859F031FFAC
:100AC00002C08BE201C080E237FD8DE2B70190E009
:100AD0000E94BD05A51438F4B70180E390E00E94A0
:100AE000BD055A94F7CFAA94F401EA0DF11D808157
:100AF000B70190E00E94BD05A110F5CF332009F4A5
:100B000051CEB70180E290E00E94BD053A94F6CF45
:100B1000F7018681978102C08FEF9FEF2C960FB669
:100B2000F894DEBF0FBECDBFDF91CF911F910F9123
:100B3000FF90EF90DF90CF90BF90AF909F908F90FD
:100B40007F906F905F904F903F902F900895FC01A1
:100B50000590615070400110D8F7809590958E0FE8
:100B60009F1F0895FC016150704001900110D8F75B
:100B7000809590958E0F9F1F08950F931F93CF938D
:100B8000DF93FB01238121FD03C08FEF9FEF28C07E
:100B900022FF16C0468157812481358142175307B1
:100BA00044F4A081B1819D012F5F3F4F31832083A9
:100BB0008C93268137812F5F3F4F3783268310C068
:100BC000EB01092F182F0084F185E02D1995892B51
:100BD000E1F68E819F8101969F838E83812F902FD6
:100BE000DF91CF911F910F910895FA01AA27283024
:100BF00051F1203181F1E8946F936E7F6E5F7F4FEA
:100C00008F4F9F4FAF4FB1E03ED0B4E03CD0670F65
:100C1000781F891F9A1FA11D680F791F8A1F911DB8
:100C2000A11D6A0F711D811D911DA11D20D009F408
:100C300068943F912AE0269F11243019305D31934A
:100C4000DEF6CF010895462F4770405D4193B3E033
:100C50000FD0C9F7F6CF462F4F70405D4A3318F0DA
:100C6000495D31FD4052419302D0A9F7EACFB4E08B
:100C7000A6959795879577956795BA95C9F7009743
:100C80006105710508959B01AC010A2E06945795E4
:100C9000479537952795BA95C9F7620F731F841F3B
:0A0CA000951FA01D0895F894FFCFE2
:100CAA000000000200000000EF00000000005245B2
:100CBA004144590A2020004D454E553A20616C6C3A
:100CCA0070696E6F6E20202D2020616C6C70696EC9
:100CDA006F666620202D202070696E6F6E200A20B4
:100CEA002000737769746368202025642C25640AC0
:100CFA0000616C6C70696E6F66660A0053636567A3
:100D0A006C6920756E2070696E20646120312D38FF
:100D1A00200A0050494E204E4F4E20444953504F0E
:100D2A004E4942494C4520696E736572697363691D
:100D3A002076616C6F72652070696E20636F7272C3
:100D4A006574746F200A00696E73657269736369EA
:100D5A002076616C6F726520302D323535207065D2
:100D6A00722064696D6D65726172652070657220AA
:100D7A00696C2070696E200A0076616C6F7265205A
:100D8A007365747461746F207065722070696E2067
:100D9A0031320076616C6F726520736574746174A8
:100DAA006F207065722070696E2032200076616C47
:100DBA006F7265207365747461746F207065722038
:100DCA0070696E2033200076616C6F7265207365DE
:100DDA00747461746F207065722070696E2031318D
:100DEA000076616C6F7265207365747461746F202C
:100DFA007065722070696E2035200076616C6F72A2
:100E0A0065207365747461746F20706572207069EF
:100E1A006E2036200076616C6F726520736574747B
:100E2A0061746F207065722070696E2037200074BB
:100E3A007574746F207370656E746F200A00726522
:100E4A006365697665640A00747574746F206163FA
:100E5A006365736F203D29200A00616C6C70696EAE
:100E6A006F6E0A0076616C6F7265207365747461C7
:0E0E7A00746F207065722070696E2038200041
:00000001FF
