:100000000C9472000C948B000C948B000C948B005D
:100010000C948B000C948B000C948B000C948B0034
:100020000C948B000C948B000C948B000C948B0024
:100030000C948B000C948B000C948B000C948B0014
:100040000C948B000C948B000C948B000C948B0004
:100050000C948B000C948B000C948B000C948B00F4
:100060000C948B000C948B000C948B000C948B00E4
:100070000C948B000C948B000C948B000C948B00D4
:100080000C948B000C948B000C948B000C948B00C4
:100090000C948B000C948B000C948B000C948B00B4
:1000A0000C948B000C948B000C948B000C948B00A4
:1000B0000C948B000C948B000C948B000C948B0094
:1000C0000C948B000C948B000C948B000C948B0084
:1000D0000C948B000C948B000C948B000C948B0074
:1000E0000C948B0011241FBECFEFD1E2DEBFCDBF39
:1000F00000E00CBF12E0A0E0B2E0E0EDF1E000E0D3
:100100000BBF02C007900D92AC32B107D9F70E9425
:10011000C9000C94E6000C9400001092C50082E324
:100120008093C40086E08093C20088E98093C10078
:1001300008959091C00095FFFCCF8093C60008956C
:100140008091C00087FFFCCF8091C6000895FC011C
:100150009091C00097FFFCCF9091C6009193992396
:1001600029F09A3011F09D3099F711929E2F981B2B
:10017000892F0895FC012081222351F0319690911E
:10018000C00095FFFCCF2093C60021912111F7CF2D
:100190000895CF93DF93CDB7DEB7DA950FB6F89415
:1001A000DEBF0FBECDBF0E948D0080E092E00E94B6
:1001B000BA00CE0101960E94A70081E292E00E945F
:1001C000BA00CE0101960E94BA00F3CFF894FFCF97
:1001D000777269746520736F6D657468696E672CDA
:1001E0002069276C6C207265706561742069740ADF
:0C01F0000072656365697665640A0000B2
:00000001FF
