:100000000C9487000C94A0000C94A0000C94A00009
:100010000C94A0000C94A0000C94A0000C94A000E0
:100020000C94A0000C94A0000C94A0000C94A000D0
:100030000C94A0000C94A0000C94A0000C94A000C0
:100040000C94A0000C94A0000C94A0000C94A000B0
:100050000C94A0000C94A0000C94A0000C94A000A0
:100060000C94A0000C94A0000C94A0000C94A00090
:100070000C94A0000C94A0000C94A0000C94A00080
:100080000C94A0000C94A0000C94A0000C94A00070
:100090000C94A0000C94A0000C94A0000C94A00060
:1000A0000C94A0000C94A0000C94A0000C94A00050
:1000B0000C94A0000C94A0000C94A0000C94A00040
:1000C0000C94A0000C94A0000C94A0000C94A00030
:1000D0000C94A0000C94A0000C94A0000C94A00020
:1000E0000C94A000900278026002480230021802CC
:1000F000A8020C9430020C9490020C9418020C94F8
:1001000048020C94A8020C9460020C94780211240A
:100110001FBECFEFD1E2DEBFCDBF00E00CBF13E0CA
:10012000A0E0B2E0E2EFF5E000E00BBF02C0079014
:100130000D92A23CB107D9F70E94DE000C94F702A1
:100140000C9400001092C50082E38093C40086E006
:100150008093C20088E98093C10008959091C00007
:1001600095FFFCCF8093C60008958091C00087FF63
:10017000FCCF8091C6000895FC019091C00097FFCC
:10018000FCCF9091C6009193992329F09A3011F0F9
:100190009D3099F711929E2F981B892F0895FC018D
:1001A0002081222351F031969091C00095FFFCCF21
:1001B0002093C60021912111F7CF0895CF93DF93AB
:1001C000CDB7DEB7DA950FB6F894DEBF0FBECDBF60
:1001D0009DEF9093800089E0809381009093900040
:1001E000809391009093A0008093A10088E784B948
:1001F0008DB9809301011092C50082E38093C40001
:1002000086E08093C20088E98093C100E1E0F2E0DB
:1002100082E59091C00095FFFCCF8093C60081914C
:100220008111F7CFEAE0F2E08DE49091C00095FFF4
:10023000FCCF8093C60081918111F7CFFE013196EA
:100240008091C00087FFFCCF8091C60081938823F6
:1002500029F08A3011F08D3099F71082E2E8F3E04E
:1002600092E78091C00085FFFCCF9093C6009191EA
:100270009111F7CF9981992359F0FE01329680911F
:10028000C00085FFFCCF9093C60091919111F7CFEC
:10029000BE016F5F7F4F8DE993E00E94E602892BDC
:1002A000E9F481E08093880080938A00809398002D
:1002B00080939A0080939C008093A8008093AA006A
:1002C0008093AC00ECE8F3E094E78091C00085FFF8
:1002D000FCCF9093C60091919111F7CFBE016F5F53
:1002E0007F4F80EA93E00E94E602892B09F05DC00F
:1002F000E0E4F2E093E58091C00085FFFCCF9093AD
:10030000C60091919111F7CFFE0131968091C00006
:1003100087FFFCCF8091C6008193882329F08A3023
:1003200011F08D3099F71082CE0101960E94C8021B
:10033000182F8FEF810F883008F05EC0EBE8F2E0F5
:1003400029E69091C00095FFFCCF2093C600219133
:100350002111F7CFFE0131969091C00097FFFCCF9D
:100360009091C6009193992329F09A3011F09D3015
:1003700099F71082CE0101960E94C802982F412F52
:1003800050E0FA013297E730F10508F44BC0909342
:100390008A00EDEBF2E096E78091C00085FFFCCF8C
:1003A0009093C60091919111F7CF64E372E0CE0172
:1003B00001960E94E602892B09F040CF8FEF8093CF
:1003C000880080938A008093980080939A0080939D
:1003D0009C008093A8008093AA008093AC00E3E780
:1003E000F3E094E78091C00085FFFCCF9093C600B6
:1003F00091919111F7CF22CFE7E5F2E090E580915E
:10040000C00085FFFCCF9093C60091919111F7CF6A
:1004100064E372E0CE0101960E94E602892B09F0A6
:100420000DCFCCCF8827EE58FF4F8F4F0C94C002D2
:100430009093AA00E9E5F3E096E78091C00085FF7C
:10044000FCCF9093C60091919111F7CF64E372E0D5
:10045000CE0101960E94E602892B09F0EFCEAECFC5
:100460009093A800EFE3F3E096E78091C00085FF4A
:10047000FCCF9093C60091919111F7CF64E372E0A5
:10048000CE0101960E94E602892B09F0D7CE96CFC5
:1004900090939800E5E2F3E096E78091C00085FF35
:1004A000FCCF9093C60091919111F7CF64E372E075
:1004B000CE0101960E94E602892B09F0BFCE7ECFC5
:1004C00090938800EBE0F3E096E78091C00085FF11
:1004D000FCCF9093C60091919111F7CF64E372E045
:1004E000CE0101960E94E602892B09F0A7CE66CFC5
:1004F00090939C00E1EFF2E096E78091C00085FFC9
:10050000FCCF9093C60091919111F7CF64E372E014
:10051000CE0101960E94E602892B09F08FCE4ECFC4
:1005200090939A00E7EDF2E096E78091C00085FF96
:10053000FCCF9093C60091919111F7CF64E372E0E4
:10054000CE0101960E94E602892B09F077CE36CFC4
:100550009093AC00E8EAF3E096E78091C00085FF55
:10056000FCCF9093C60091919111F7CF64E372E0B4
:10057000CE0101960E94E602892B09F05FCE1ECFC4
:10058000EE0FFF1F881F8BBF0790F691E02D199487
:10059000FC0188279927E89421912032E9F329303A
:1005A00010F02E30C8F32B3241F02D3239F468941C
:1005B00004C00E94EF02820F911D219120532A3026
:1005C000C0F31EF4909581959F4F0895FB01DC01C7
:1005D0008D91019080190110D9F3990B08957AE05B
:1005E000979F902D879F802D910D11240895F89449
:0205F000FFCF3B
:1005F20052454144590A2020004D454E553A20614A
:100602006C6C70696E6F6E20202D2020616C6C7096
:10061200696E6F666620202D202070696E6F6E20D5
:100622000A202000616C6C70696E6F66660A005366
:100632006365676C6920756E2070696E2064612045
:10064200312D38200A0050494E204E4F4E20444949
:1006520053504F4E4942494C4520696E7365726949
:100662007363692076616C6F72652070696E2063B6
:100672006F72726574746F200A00696E73657269B5
:100682007363692076616C6F726520302D32353567
:10069200207065722064696D6D657261726520708B
:1006A200657220696C2070696E200A0076616C6F39
:1006B2007265207365747461746F20706572207046
:1006C200696E2031320076616C6F726520736574D9
:1006D2007461746F207065722070696E2032200020
:1006E20076616C6F7265207365747461746F2070CB
:1006F20065722070696E2033200076616C6F7265BE
:10070200207365747461746F207065722070696EF5
:100712002031310076616C6F72652073657474618B
:10072200746F207065722070696E203520007661CA
:100732006C6F7265207365747461746F207065727A
:100742002070696E2036200076616C6F72652073AE
:1007520065747461746F207065722070696E2037E1
:100762002000747574746F207370656E746F200A44
:100772000072656365697665640A00747574746FE6
:100782002061636365736F203D29200A00616C6CF0
:1007920070696E6F6E0A0076616C6F7265207365A8
:1007A200747461746F207065722070696E203820D5
:0207B200000045
:00000001FF
